:1000000010C017C016C015C014C013C012C011C054
:1000100010C00FC00EC00DC00CC00BC00AC009C07C
:1000200008C011241FBECFE5D2E0DEBFCDBF51D046
:1000300045C2E6CFEF92FF920F931F93CF93DF93CA
:10004000811522E092078CF19250C6E0D0E02FC0DB
:100050008F3F910511F10CF1223031057CF4B8018C
:10006000621B730B7F0102C0EE0CFF1C6A95E2F766
:10007000B70160957095C623D7230EC0BD01621BE2
:10008000730B7F0102C0EE0CFF1C6A95E2F7B7010B
:1000900060957095462357239A95880F991F215094
:1000A0003109B0F64BBBC8BB0DC0C7E0D0E028E0BB
:1000B00030E04EEF50E0A9E0B0E0E1E0F0E002E037
:1000C00010E0C6CFDF91CF911F910F91FF90EF907D
:1000D00008958EEF8ABB87E087BB86B1876086B9BB
:1000E000359A379A369A3F9A8FEF91E0A3DF2FEF38
:1000F00089E698E1215080409040E1F700C000007F
:100100000F2EC12CF0E8DF2EFAE2EF2EF4E4FF2EE2
:10011000F02DC4B1D0E015B126E636E646E65FE341
:10012000C701B60160D16B017C01612F70E0762FB1
:1001300066276C0F7D1F882777FD8095982FC7D085
:100140002DEC3CEC4CEC5DE34ED19B01AC01C701C6
:10015000B60126D06B017C0120E030E040E85AE394
:1001600042D12DEC3CEC4CE050E43DD12DEC3CEC8C
:100170004CEC5EE314D028EB3EE14DE452E433D185
:1001800020E030E040E251E42ED16ED0CB0152DFCE
:100190008FE19EE40197F1F700C00000BACF5058FC
:1001A000BB27AA270ED0E5C0D6D030F0DBD020F098
:1001B00031F49F3F11F41EF4CBC00EF4E095E7FB41
:1001C000C1C0E92FE7D080F3BA176207730784072D
:1001D000950718F071F49EF5FFC00EF4E0950B2E14
:1001E000BA2FA02D0B01B90190010C01CA01A00189
:1001F0001124FF27591B99F0593F50F4503E68F1E4
:100200001A16F040A22F232F342F4427585FF3CF24
:10021000469537952795A795F0405395C9F77EF4F5
:100220001F16BA0B620B730B840BBAF09150A1F03E
:10023000FF0FBB1F661F771F881FC2F70EC0BA0FC4
:10024000621F731F841F48F4879577956795B7954C
:10025000F7959E3F08F0B3CF9395880F08F0992744
:10026000EE0F97958795089504D06894B111B5C0A5
:10027000089598D088F09F5790F0B92F9927B751DB
:10028000A0F0D1F0660F771F881F991F1AF0BA955A
:10029000C9F712C0B13081F09FD0B1E008959CC081
:1002A000672F782F8827B85F39F0B93FCCF3869550
:1002B00077956795B395D9F73EF4909580957095AD
:1002C00061957F4F8F4F9F4F0895E89409C097FB2A
:1002D0003EF490958095709561957F4F8F4F9F4F1D
:1002E0009923A9F0F92F96E9BB279395F695879561
:1002F00077956795B795F111F8CFFAF4BB0F11F424
:1003000060FF1BC06F5F7F4F8F4F9F4F16C08823CA
:1003100011F096E911C0772321F09EE8872F762F00
:1003200005C0662371F096E8862F70E060E02AF041
:100330009A95660F771F881FDAF7880F969587952D
:1003400097F9089597F99F6780E870E060E0089555
:100350009FEF80EC089500240A94161617061806DD
:100360000906089500240A941216130614060506B9
:100370000895092E0394000C11F4882352F0BB0F4A
:1003800040F4BF2B11F460FF04C06F5F7F4F8F4FAD
:100390009F4F089557FD9058440F551F59F05F3FE8
:1003A00071F04795880F97FB991F61F09F3F79F097
:1003B00087950895121613061406551FF2CF469519
:1003C000F1DF08C0161617061806991FF1CF86959B
:1003D0007105610508940895E894BB27662777277F
:1003E000CB0197F908950AD0C4CFB5DF28F0BADF62
:1003F00018F0952309F0A6CFABCFEFCFCBDFA8F352
:100400009923D9F35523C9F3950F50E0551FAA2717
:10041000EE27FF27BB2700240894679520F4E20FFE
:10042000F31FB41F0A1E220F331F441FAA1F669515
:10043000A9F7779530F4F30FB41F0A1E121E08F4C3
:100440006395330F441FAA1F221F769599F787954E
:1004500020F4B40F0A1E121E631F440FAA1F221F8E
:10046000331F8695A9F7862F712D602D11249F5774
:1004700050408AF0E1F088234AF0EE0FFF1FBB1FC7
:10048000661F771F881F91505040A9F79E3F510566
:1004900070F058CFA2CF5F3FECF3983EDCF3869527
:1004A00077956795B795F795E7959F5FC1F7FE2B11
:1004B000880F911D9695879597F90895F894FFCF29
:00000001FF
